:1000000042C066C065C064C063C062C061C060C0F9
:100010005FC06FC35DC085C45BC05AC059C058C0C3
:1000200057C056C055C000000000370034003100F2
:1000300000000000380035003200000000003600EB
:100040003300300004040404040404040202020225
:10005000020203030303030301020408102040808B
:100060000102040810200102040810200000000012
:100070000000000000030405000000000000000074
:100080009900D600050611241FBECFE5D4E0DEBFDF
:10009000CDBF10E0A0E6B0E0E2ECFFE002C00590CA
:1000A0000D92AC36B107D9F711E0ACE6B0E001C073
:1000B0001D92A734B107E1F710E0C6E8D0E003C015
:1000C0002297FE0178D7C038D107D1F7D8D577C7A6
:1000D00097CFE199FECF7FBB6EBBE09A8DB30895B9
:1000E000E199FECF7FBB6EBB4DBB0FB6F894E29A91
:1000F000E19A0FBE08951DB86F7260656DB98EB13B
:100100008FB108956FB9779BFECF8FB108958DE0C1
:1001100061E0B0D38BE061E0ADD38CE060E0AAD3C6
:100120008AE061E0A7D31DB880E58DB98EB18FB1AB
:1001300008958DE690E0EBCF0F931F93FC0181E0D3
:10014000808341835283638374833683258310873E
:1001500007831F910F910895FC0110820895FC01FF
:1001600081E080830895CF93DF93EC018881882319
:10017000D1F007D329813A814B815C81621B730BDB
:10018000840B950B2D813E8140E050E06217730790
:100190008407950740F0F5D269837A838B839C832B
:1001A000EF81F8850995DF91CF9108950F931F9303
:1001B0008EE990E040E050E060E070E024E630E05E
:1001C00002EE11E0B9DF1F910F910895FF920F9396
:1001D0001F93CF93DF93C0E0D0E084E391E0C9D4D4
:1001E0008823F1F184E391E0D6D4F82E082F10E0B3
:1001F000B80156E0759567955A95E1F7617087E00B
:1002000059D3B80145E0759567954A95E1F7617056
:1002100086E050D3B80134E0759567953A95E1F7DB
:10022000617085E047D3B80123E0759567952A95FD
:10023000E1F7617084E03ED3B801759567957595D7
:100240006795617083E036D315950795017088E056
:10025000602F30D381E0F82282E06F2D2BD309C0CC
:100260008AE090E0C6D2219683E0C93ED80709F023
:10027000B4CFDF91CF911F910F91FF9008950F930D
:100280001F93CF93DF9310E0C0E0D0E084E391E0D0
:1002900070D4882349F084E391E07DD4E12FF0E02D
:1002A000E858FF4F80831F5F81E090E0A2D2219643
:1002B00087E2C131D80789F1183040F3C8E7D0E0B0
:1002C00000E010E0980166E0220F331F6A95E1F725
:1002D0008981820F898389E060E0ECD28DE690E02D
:1002E000698110DF8DE690E068810CDF89E061E0D4
:1002F000E1D284E690E07DD20F5F1F4F229604305A
:10030000110501F78AE060E0D5D261E070E080E09D
:1003100090E045D28AE061E0CDD2DF91CF911F918C
:100320000F9108950F931F93CF93DF93C0E0D0E018
:1003300000E010E084E391E01CD4882341F084E3E2
:1003400091E029D4FE01E858FF4F808321968AE08E
:1003500090E04FD20F5F1F4F87E20131180729F459
:1003600084E391E061E33ED411C0C233D10514F3BC
:10037000C0E0D0E0FE01E858FF4F8CE690E0BE01FF
:100380004081AEDE2196C233D105A1F7DF91CF9136
:100390001F910F910895CF93DF9384E391E065E57A
:1003A00021D4C0E0D0E08CE690E0BE0192DE682F60
:1003B00084E391E017D42196C233D105A1F7DF91F0
:1003C000CF910895AF92BF92DF92EF92FF920F9379
:1003D0001F93CF93DF9310927100109270001092D0
:1003E00073001092720010927500109274001092B7
:1003F000770010927600B0E7AB2EB0E0BB2E75010F
:10040000DD2419C0F701008111818D2D1ED2800FCE
:10041000911FF701918380832196C430D10591F714
:100420009595879595958795819391937F01D39421
:10043000F4E0DF1619F0C0E0D0E0E4CF84E391E00F
:1004400065E570E040E050E01FD59BD17B018C0159
:1004500080919A0090919B00A0919C00B0919D008A
:10046000E81AF90A0A0B1B0BC0E0D0E084E391E024
:100470006E2DB8D3EF2CF02E012F11272196C4300A
:10048000D105A1F784E391E0F5016081ABD3F501DB
:10049000619171915F01672F770F770B84E391E092
:1004A000A1D3F8E7AF16F0E0BF0661F7DF91CF9177
:1004B0001F910F91FF90EF90DF90BF90AF90089544
:1004C00084E391E056D3823008F457C084E391E08E
:1004D00062D390936F0080936E008535910509F08B
:1004E0004CC084E391E057D390936F0080936E00EB
:1004F0008A3A910509F041C081E090E07AD184E325
:1005000091E037D38823C1F384E391E044D39093FF
:100510006F0080936E0083339105D9F08433910589
:100520004CF48133910589F08233910584F4C097AE
:1005300021F509C080349105E9F081349105E1F09D
:10054000C497D9F413C03EDF18C099DE16C03EDE52
:1005500014C017D160939A0070939B0080939C0005
:1005600090939D008EE990E0FADD07C08EE990E05F
:10057000F3DD03C010DF01C0D5DE8EE990E0F3CDDE
:10058000CF93DF9380E05ED184E391E040E052ECD2
:1005900061E070E001D282E061E06CD188E061E06E
:1005A00069D183E061E066D184E061E063D185E0F8
:1005B00061E060D186E061E05DD187E061E05AD121
:1005C0008BE061E057D18DE061E054D18AE061E0D9
:1005D00051D18AE061E06ED189E061E04BD189E0E0
:1005E00061E068D18DE690E064E085DD6AE070E06E
:1005F00080E090E0D4D0C0E0D0E089E060E05AD163
:10060000BE0186E0660F771F8A95E1F78DE690E0E0
:1006100079DD8DE690E060E075DD89E061E04AD14A
:100620002196C430D10549F78AE060E043D161E00A
:1006300070E080E090E0B3D08AE061E03BD18EE9E9
:1006400090E08ADDC0E0D0E082E061E033D164E692
:1006500070E080E090E0A3D082E060E02BD188E001
:1006600061E028D164E670E080E090E098D088E016
:1006700060E020D183E061E01DD164E670E080E0BD
:1006800090E08DD083E060E015D184E061E012D18C
:1006900064E670E080E090E082D084E060E00AD11F
:1006A00085E061E007D164E670E080E090E077D01B
:1006B00085E060E0FFD086E061E0FCD064E670E0B9
:1006C00080E090E06CD086E060E0F4D087E061E00C
:1006D000F1D064E670E080E090E061D087E060E017
:1006E000E9D02196C330D10509F0AECFDF91CF918B
:1006F00008951F920F920FB60F9211242F933F93DC
:100700008F939F93AF93BF938091AB009091AC0078
:10071000A091AD00B091AE003091AF000196A11D47
:10072000B11D232F2D5F2D3720F02D570196A11DD0
:10073000B11D2093AF008093AB009093AC00A093C9
:10074000AD00B093AE008091A7009091A800A09159
:10075000A900B091AA000196A11DB11D8093A70028
:100760009093A800A093A900B093AA00BF91AF9165
:100770009F918F913F912F910F900FBE0F901F90DF
:1007800018958FB7F8942091AB003091AC00409150
:10079000AD005091AE008FBFB901CA010895EF922C
:1007A000FF920F931F937B018C018FB7F8944091B8
:1007B000AB005091AC006091AD007091AE008FBF66
:1007C0002FB7F8948091AB009091AC00A091AD0050
:1007D000B091AE002FBF841B950BA60BB70BE8168C
:1007E000F9060A071B0760F71F910F91FF90EF9022
:1007F0000895019739F0880F991F880F991F029764
:100800000197F1F70895789483B7826083BF83B727
:10081000816083BF89B7816089BF8EB582608EBDDC
:100820008EB581608EBD8FB581608FBD85B58460CA
:1008300085BD85B5806485BD329A319A309A379AE4
:100840001AB80895809360000895877090916000B1
:100850009295990F990F907C982B97B9369A369963
:10086000FECF24B145B1942F80E030E0282B392B06
:10087000C9010895282F30E0C901885A9F4FFC0113
:1008800094912C5B3F4FF9018491882391F0E82FDC
:10089000F0E0EE0FFF1FEA5DFF4FA591B4916623D4
:1008A00029F48C91909589238C9308958C91892BB0
:1008B0008C930895482F50E0CA0184599F4FFC0142
:1008C0002491CA01885A9F4FFC0194914C5B5F4F61
:1008D000FA013491332321F1222381F0233019F4DA
:1008E0008FB58F7704C0243021F48FB58F7D8FBDF5
:1008F00005C0253019F485B58F7D85BDE32FF0E067
:10090000EE0FFF1FE05DFF4FA591B491662329F420
:100910008C91909589238C9308958C91892B8C933D
:1009200008951F920F920FB60F9211242F933F93A9
:100930004F935F936F937F938F939F93AF93BF93E7
:10094000EF93FF934CB1E0913001F0913101CF0171
:10095000019660E870E0C9D29C01809132019091CB
:1009600033012817390739F0E055FF4F40833093A2
:10097000310120933001FF91EF91BF91AF919F9191
:100980008F917F916F915F914F913F912F910F9038
:100990000FBE0F901F9018955F926F927F928F926B
:1009A0009F92AF92BF92CF92DF92EF92FF920F93FE
:1009B0001F93CF93DF93EC013A014B01413482E462
:1009C00058078FE0680780E078070CF075C060E892
:1009D00074E88EE190E0A4019301BCD22150304034
:1009E00040405040CA01B90122E030E040E050E010
:1009F000B1D259016A01A601950120953095409523
:100A0000509594E0220F331F441F551F9A95D1F73C
:100A100060E074E284EF90E09DD2CA01B9012FEF4B
:100A200030E040E050E042D2A401930193D2C901EA
:100A300081509F4F181619061CF4522E5A9403C069
:100A400055245394521A60E079E08DE390E0A401BC
:100A5000930180D22150304040405040CA01B9013A
:100A600022E030E040E050E075D22095309540958E
:100A7000509583E0220F331F441F551F8A95D1F7ED
:100A800060E074E284EF90E065D2CA01B9012FEF13
:100A900030E040E050E00AD2A40193015BD2C901EA
:100AA00081509F4F181619061CF4822F815002C0E6
:100AB00081E0821B8515F0F4E885F98581E090E0FE
:100AC0000A8802C0880F991F0A94E2F7808360E0C9
:100AD00079E08DE390E0A40193013CD221503040B5
:100AE00040405040CA01B90122E030E040E050E00F
:100AF00031D204C0E885F98510829501EC81FD8131
:100B00003083EE81FF812083EA85FB85208141E0EF
:100B100050E0CA010E8402C0880F991F0A94E2F7C0
:100B2000282B2083EA85FB852081CA010F8402C01F
:100B3000880F991F0A94E2F7282B2083EA85FB850A
:100B40008081088802C0440F551F0A94E2F7842B65
:100B50008083DF91CF911F910F91FF90EF90DF90F5
:100B6000CF90BF90AF909F908F907F906F905F904D
:100B70000895DC011296ED91FC911397E058FF4F18
:100B80008191919180589F4F20813181821B930BDD
:100B900060E870E0AAC1CF93DF93DC011296ED917B
:100BA000FC911397EF01CE57DF4F48815981E058F0
:100BB000FF4F80819181E058F0408417950719F428
:100BC0002FEF3FEF0BC0E40FF51F2081CA01019604
:100BD00060E870E08AD19983888330E0C901DF91B1
:100BE000CF910895FC01A085B18521898C9190E079
:100BF000022E02C0959587950A94E2F780FFF6CF02
:100C00000484F585E02D6083089585E690E0909357
:100C100035018093340180EB90E09093370180930D
:100C2000360180E490E0909339018093380189E2A5
:100C300090E090933B0180933A018BE290E0909397
:100C40003D0180933C018AE290E090933F018093C4
:100C50003E018CE290E0909341018093400184E05A
:100C60008093420183E08093430187E080934401B5
:100C700085E08093450181E0809346010895C3DDBE
:100C80007FDC1EDCFECF0F931F93CF93DF938C018D
:100C9000EB0109C02196D801ED91FC910190F08102
:100CA000E02DC801099568816623A1F7DF91CF91F6
:100CB0001F910F910895EF92FF920F931F93CF937F
:100CC000DF938C017B01EA010CC0D7016D917D019E
:100CD000D801ED91FC910190F081E02DC8010995BA
:100CE0002197209791F7DF91CF911F910F91FF905E
:100CF000EF9008952F923F924F925F926F927F9262
:100D00008F929F92AF92BF92CF92DF92EF92FF921B
:100D10000F931F93DF93CF93CDB7DEB7A0970FB696
:100D2000F894DEBF0FBECDBF1C016A017B014115E7
:100D300051056105710541F440E350E060E070E069
:100D400020E030E06DD053C0882499245401422E15
:100D500055246624772401E010E00C0F1D1F080DB8
:100D6000191DC701B601A3019201D2D0F801608319
:100D70000894811C911CA11CB11CC701B601A301E0
:100D80009201C6D0C901DA016C017D01C114D10400
:100D9000E104F10401F781E0E82EF12CEC0EFD1ED8
:100DA000E80CF91C3E010894611C711CD501C401BA
:100DB0000197A109B1096C01C818D90815C0F6013D
:100DC000EE0DFF1D40814A3010F4405D01C0495CCA
:100DD000552747FD5095652F752FC10120E030E064
:100DE0001FD00894E108F1086E147F0441F7A09623
:100DF0000FB6F894DEBF0FBECDBFCF91DF911F912C
:100E00000F91FF90EF90DF90CF90BF90AF909F90A9
:100E10008F907F906F905F904F903F902F900895AC
:100E2000EF92FF920F931F93CF93DF93EC017A0120
:100E30008B012115310541F4E881F9810190F081A0
:100E4000E02D642F099519C02A303105A9F477FFE8
:100E50000FC04DE250E060E070E020E030E0E0DF05
:100E600010950095F094E094E11CF11C011D111DFA
:100E7000CE01B801A7012AE03DDFDF91CF911F919C
:100E80000F91FF90EF900895EF92FF920F931F93B1
:100E90007B019A010027F7FC0095102FB801A701EC
:100EA000BFDF1F910F91FF90EF900895629FD001D7
:100EB000739FF001829FE00DF11D649FE00DF11D15
:100EC000929FF00D839FF00D749FF00D659FF00DC4
:100ED0009927729FB00DE11DF91F639FB00DE11DB1
:100EE000F91FBD01CF011124089597FB092E072694
:100EF0000AD077FD04D049D006D000201AF47095AE
:100F000061957F4F0895F6F7909581959F4F0895CD
:100F1000A1E21A2EAA1BBB1BFD010DC0AA1FBB1FFD
:100F2000EE1FFF1FA217B307E407F50720F0A21B6F
:100F3000B30BE40BF50B661F771F881F991F1A94DC
:100F400069F760957095809590959B01AC01BD0106
:100F5000CF01089597FB092E05260ED057FD04D02A
:100F6000D7DF0AD0001C38F4509540953095219574
:100F70003F4F4F4F5F4F0895F6F7909580957095CE
:100F800061957F4F8F4F9F4F0895AA1BBB1B51E167
:100F900007C0AA1FBB1FA617B70710F0A61BB70BE9
:100FA000881F991F5A95A9F780959095BC01CD018E
:100FB0000895EE0FFF1F0590F491E02D0994F89429
:020FC000FFCF61
:0C0FC2000100000000F20543065B060081
:00000001FF
