:1000000063C0000086C0000084C0000082C0000001
:1000100080C000007EC000007CC000007AC00000EC
:1000200078C0000076C0000074C0000072C00000FC
:1000300070C000006EC000006CC000006AC000000C
:100040007CC3000066C00000CAC4000062C000009B
:1000500060C000005EC000005CC000005AC000002C
:1000600058C0000056C00000000000002400270017
:100070002A0000000000250028002B0000000000DE
:1000800023002600290004040404040404040202DA
:100090000202020203030303030301020408102007
:1000A0004080010204081020010204081020000012
:1000B0000007000201000003040600000000000029
:1000C0000000BC00F900640611241FBECFEFD4E08D
:1000D000DEBFCDBF11E0A0E0B1E0E0E8F0E102C09A
:1000E00005900D92AC30B107D9F711E0ACE0B1E06A
:1000F00001C01D92A73EB107E1F710E0C8ECD0E0C7
:1001000003C02297FE01B6D7C23CD107D1F716D65D
:10011000B5C776CFF999FECF72BD61BDF89A80B5AB
:100120000895F999FECF1FBA72BD61BD40BD0FB6EB
:10013000F894FA9AF99A0FBE08951CBC6F72606524
:100140006CBD8DB58EB508956EBD0DB407FEFDCFA7
:100150008EB508958DE061E0D5D38BE061E0D2D318
:100160008CE060E0CFD38AE061E0CCD31CBC80E5BA
:100170008CBD8DB58EB508958DE091E0EBCF0F93DA
:100180001F93FC0181E080834183528363837483E6
:1001900036832583108707831F910F910895FC01F3
:1001A00010820895FC0181E080830895CF93DF934E
:1001B000EC0188818823D1F008D329813A814B81D1
:1001C0005C81621B730B840B950B2D813E8140E09B
:1001D00050E0621773078407950740F0F6D26983F1
:1001E0007A838B839C83EF81F8850995DF91CF918A
:1001F00008950F931F938EE391E040E050E060E09C
:1002000070E024E630E006E012E0B9DF1F910F91C4
:100210000895FF920F931F93CF93DF93C0E0D0E038
:1002200084ED91E005D5882309F43EC084ED91E08A
:1002300011D5F82E082F10E0B80156E07595679596
:100240005A95E1F7617087E07DD3B80145E0759577
:1002500067954A95E1F7617086E074D3B80134E0A0
:10026000759567953A95E1F7617085E06BD3B801B4
:1002700023E0759567952A95E1F7617084E062D374
:10028000B8017595679575956795617083E05AD348
:1002900015950795017088E0602F54D381E0F8220E
:1002A00082E06F2D4FD309C08AE090E0C6D221963C
:1002B00083E0C93ED80709F0B3CFDF91CF911F91FA
:1002C0000F91FF9008950F931F93CF93DF9310E04A
:1002D000C0E0D0E084ED91E0ABD4882349F084ED18
:1002E00091E0B8D4E12FF0E0E85EFE4F80831F5F1D
:1002F00081E090E0A2D2219687E2C131D80789F14E
:10030000183040F3C8E1D1E000E010E0980166E069
:10031000220F331F6A95E1F78981820F898389E073
:1003200060E010D38DE091E069810EDF8DE091E017
:1003300068810ADF89E061E005D384E690E07DD240
:100340000F5F1F4F22960430110501F78AE060E02D
:10035000F9D261E070E080E090E045D28AE061E0AF
:10036000F1D2DF91CF911F910F9108950F931F93B9
:10037000CF93DF9300E010E0C0E0D0E084ED91E0A7
:1003800057D4882341F084ED91E064D4FE01E85E07
:10039000FE4F808321968AE090E04FD20F5F1F4F7F
:1003A00087E20131180729F484ED91E061E379D403
:1003B00011C0C233D10514F3C0E0D0E0FE01E85E05
:1003C000FE4F8CE091E0BE014081ABDE2196C2334E
:1003D000D105A1F7DF91CF911F910F910895CF9390
:1003E000DF9384ED91E065E55CD4C0E0D0E08CE083
:1003F00091E0BE018FDE682F84ED91E052D421960A
:10040000C233D105A1F7DF91CF910895AF92BF928A
:10041000DF92EF92FF920F931F93CF93DF9310928F
:1004200011011092100110921301109212011092FA
:100430001501109214011092170110921601B0E1EB
:10044000AB2EB1E0BB2E7501DD2419C0F701008190
:1004500011818D2D39D2800F911FF70191838083F7
:100460002196C430D10591F79595879595958795F7
:10047000819391937F01D394F4E0DF1619F0C0E0EB
:10048000D0E0E4CF84ED91E065E570E040E050E03D
:100490005AD59BD17B018C0180913A0190913B010F
:1004A000A0913C01B0913D01E81AF90A0A0B1B0B1F
:1004B000C0E0D0E084ED91E06E2DF3D3EF2CF02E70
:1004C000012F11272196C430D105A1F784ED91E0C9
:1004D000F5016081E6D3F501619171915F01672FAC
:1004E000770F770B84ED91E0DCD3F8E1AF16F1E004
:1004F000BF0661F7DF91CF911F910F91FF90EF90B1
:10050000DF90BF90AF90089584ED91E091D3823059
:1005100008F457C084ED91E09DD390930F01809330
:100520000E018535910509F04CC084ED91E092D320
:1005300090930F0180930E018A3A910509F041C012
:1005400081E090E07AD184ED91E072D38823C1F309
:1005500084ED91E07FD390930F0180930E0183335C
:100560009105D9F0843391054CF48133910589F0DC
:100570008233910584F4C09721F509C08034910538
:10058000E9F081349105E1F0C497D9F413C03EDF5E
:1005900018C099DE16C03DDE14C017D160933A0131
:1005A00070933B0180933C0190933D018EE391E079
:1005B000F9DD07C08EE391E0F2DD03C010DF01C07A
:1005C000D5DE8EE391E0F2CDCF93DF9380E079D159
:1005D00084ED91E040E052EC61E070E03CD282E0DA
:1005E00061E090D188E061E08DD183E061E08AD163
:1005F00084E061E087D185E061E084D186E061E05C
:1006000081D187E061E07ED18BE061E07BD18DE03C
:1006100061E078D18AE061E075D18AE061E092D151
:1006200089E061E06FD189E061E08CD18DE091E0FB
:1006300064E083DD6AE070E080E090E0D4D0C0E068
:10064000D0E089E060E07ED1BE0186E0660F771FD2
:100650008A95E1F78DE091E077DD8DE091E060E053
:1006600073DD89E061E06ED12196C430D10549F790
:100670008AE060E067D161E070E080E090E0B3D0B4
:100680008AE061E05FD18EE391E089DDC0E0D0E0F7
:1006900082E061E057D164E670E080E090E0A3D0B2
:1006A00082E060E04FD188E061E04CD164E670E028
:1006B00080E090E098D088E060E044D183E061E0A1
:1006C00041D164E670E080E090E08DD083E060E0AE
:1006D00039D184E061E036D164E670E080E090E0FA
:1006E00082D084E060E02ED185E061E02BD164E629
:1006F00070E080E090E077D085E060E023D186E094
:1007000061E020D164E670E080E090E06CD086E0AB
:1007100060E018D187E061E015D164E670E080E028
:1007200090E061D087E060E00DD12196C330D10523
:1007300009F0AECFDF91CF9108951F920F920FB6BF
:100740000F9211242F933F938F939F93AF93BF9357
:1007500080914B0190914C01A0914D01B0914E01BF
:1007600030914F010196A11DB11D232F2D5F2D3713
:1007700020F02D570196A11DB11D20934F018093AC
:100780004B0190934C01A0934D01B0934E01809189
:10079000470190914801A0914901B0914A01019609
:1007A000A11DB11D8093470190934801A093490179
:1007B000B0934A01BF91AF919F918F913F912F913B
:1007C0000F900FBE0F901F9018958FB7F89420913F
:1007D0004B0130914C0140914D0150914E018FBF22
:1007E000B901CA010895EF92FF920F931F937B0105
:1007F0008C018FB7F89440914B0150914C0160915E
:100800004D0170914E018FBF2FB7F89480914B012D
:1008100090914C01A0914D01B0914E012FBF841BCE
:10082000950BA60BB70BE816F9060A071B0760F72E
:100830001F910F91FF90EF900895019739F0880F65
:10084000991F880F991F02970197F1F708957894DF
:1008500084B5826084BD84B5816084BD85B58260C5
:1008600085BD85B5816085BDEEE6F0E08081816063
:100870008083E1E8F0E08081826080838081816014
:100880008083E0E8F0E0808181608083E1EBF0E04C
:10089000808184608083E0EBF0E0808181608083F0
:1008A000EAE7F0E0808184608083808182608083D9
:1008B0008081816080838081806880831092C10004
:1008C000089580930001089587709091000192959A
:1008D000990F990F907C982B90937C0080917A00CF
:1008E000806480937A0080917A0086FDFCCF20910D
:1008F000780040917900942F80E030E0282B392B4C
:10090000C9010895282F30E0C90186569F4FFC0188
:1009100094912A573F4FF9018491882391F0E82F51
:10092000F0E0EE0FFF1FE859FF4FA591B491662349
:1009300029F48C91909589238C9308958C91892B1F
:100940008C930895482F50E0CA0182559F4FFC01B7
:100950002491CA0186569F4FFC0194914A575F4FDC
:10096000FA0134913323D1F1222331F1233021F4E0
:10097000809180008F7705C0243031F48091800011
:100980008F7D8093800018C0213019F484B58F7753
:1009900004C0223021F484B58F7D84BD0DC0263083
:1009A00021F48091B0008F7705C0273029F4809121
:1009B000B0008F7D8093B000E32FF0E0EE0FFF1FBB
:1009C000EE58FF4FA591B491662329F48C91909530
:1009D00089238C9308958C91892B8C9308951F9271
:1009E0000F920FB60F9211242F933F934F935F9363
:1009F0006F937F938F939F93AF93BF93EF93FF93E7
:100A00004091C600E091D001F091D101CF01019653
:100A100060E870E0C9D29C018091D2019091D3012D
:100A20002817390739F0E05BFE4F40833093D1013E
:100A30002093D001FF91EF91BF91AF919F918F9142
:100A40007F916F915F914F913F912F910F900FBECA
:100A50000F901F9018955F926F927F928F929F9246
:100A6000AF92BF92CF92DF92EF92FF920F931F93BC
:100A7000CF93DF93EC013A014B01413482E45807F4
:100A80008FE0680780E078070CF075C060E874E8D4
:100A90008EE190E0A4019301BCD22150304040404F
:100AA0005040CA01B90122E030E040E050E0B1D24C
:100AB00059016A01A6019501209530954095509500
:100AC00094E0220F331F441F551F9A95D1F760E021
:100AD00074E284EF90E09DD2CA01B9012FEF30E0BB
:100AE00040E050E042D2A401930193D2C901815069
:100AF0009F4F181619061CF4522E5A9403C0552401
:100B00005394521A60E079E08DE390E0A4019301E0
:100B100080D22150304040405040CA01B90122E00B
:100B200030E040E050E075D22095309540955095EA
:100B300083E0220F331F441F551F8A95D1F760E0D1
:100B400074E284EF90E065D2CA01B9012FEF30E082
:100B500040E050E00AD2A40193015BD2C901815068
:100B60009F4F181619061CF4822F815002C081E095
:100B7000821B8515F0F4E885F98581E090E00A880C
:100B800002C0880F991F0A94E2F7808360E079E041
:100B90008DE390E0A40193013CD2215030404040CD
:100BA0005040CA01B90122E030E040E050E031D2CB
:100BB00004C0E885F98510829501EC81FD813083C0
:100BC000EE81FF812083EA85FB85208141E050E0B2
:100BD000CA010E8402C0880F991F0A94E2F7282BDD
:100BE0002083EA85FB852081CA010F8402C0880F1B
:100BF000991F0A94E2F7282B2083EA85FB858081E0
:100C0000088802C0440F551F0A94E2F7842B8083A2
:100C1000DF91CF911F910F91FF90EF90DF90CF90D8
:100C2000BF90AF909F908F907F906F905F9008954E
:100C3000DC011296ED91FC911397E058FF4F8191E2
:100C4000919180589F4F20813181821B930B60E8E6
:100C500070E0AAC1CF93DF93DC011296ED91FC9175
:100C60001397EF01CE57DF4F48815981E058FF4F6E
:100C700080819181E058F0408417950719F42FEF97
:100C80003FEF0BC0E40FF51F2081CA01019660E819
:100C900070E08AD19983888330E0C901DF91CF91D8
:100CA0000895FC01A085B18521898C9190E0022EE8
:100CB00002C0959587950A94E2F780FFF6CF0484E9
:100CC000F585E02D6083089585E091E09093D5014E
:100CD0008093D40180E591E09093D7018093D60171
:100CE00085EC90E09093D9018093D80184EC90E05A
:100CF0009093DB018093DA0180EC90E09093DD012A
:100D00008093DC0181EC90E09093DF018093DE0121
:100D100086EC90E09093E1018093E00184E0809381
:100D2000E20183E08093E30187E08093E40185E0C2
:100D30008093E50181E08093E601089588DD44DC3D
:100D4000E3DBFECF0F931F93CF93DF938C01EB0177
:100D500009C02196D801ED91FC910190F081E02D20
:100D6000C801099568816623A1F7DF91CF911F9192
:100D70000F910895EF92FF920F931F93CF93DF93FC
:100D80008C017B01EA010CC0D7016D917D01D80176
:100D9000ED91FC910190F081E02DC801099521971A
:100DA000209791F7DF91CF911F910F91FF90EF90D6
:100DB00008952F923F924F925F926F927F928F92FF
:100DC0009F92AF92BF92CF92DF92EF92FF920F93DA
:100DD0001F93DF93CF93CDB7DEB7A0970FB6F894EC
:100DE000DEBF0FBECDBF1C016A017B01411551055D
:100DF0006105710541F440E350E060E070E020E0FF
:100E000030E06DD053C0882499245401422E5524DB
:100E10006624772401E010E00C0F1D1F080D191D3A
:100E2000C701B601A3019201D2D0F80160830894F2
:100E3000811C911CA11CB11CC701B601A301920128
:100E4000C6D0C901DA016C017D01C114D104E104ED
:100E5000F10401F781E0E82EF12CEC0EFD1EE80C08
:100E6000F91C3E010894611C711CD501C401019755
:100E7000A109B1096C01C818D90815C0F601EE0D19
:100E8000FF1D40814A3010F4405D01C0495C552788
:100E900047FD5095652F752FC10120E030E01FD030
:100EA0000894E108F1086E147F0441F7A0960FB68C
:100EB000F894DEBF0FBECDBFCF91DF911F910F9190
:100EC000FF90EF90DF90CF90BF90AF909F908F906A
:100ED0007F906F905F904F903F902F900895EF928A
:100EE000FF920F931F93CF93DF93EC017A018B0155
:100EF0002115310541F4E881F9810190F081E02D5F
:100F0000642F099519C02A303105A9F477FF0FC065
:100F10004DE250E060E070E020E030E0E0DF10956E
:100F20000095F094E094E11CF11C011D111DCE010F
:100F3000B801A7012AE03DDFDF91CF911F910F910A
:100F4000FF90EF900895EF92FF920F931F937B0114
:100F50009A010027F7FC0095102FB801A701BFDF09
:100F60001F910F91FF90EF900895629FD001739FA2
:100F7000F001829FE00DF11D649FE00DF11D929F35
:100F8000F00D839FF00D749FF00D659FF00D992774
:100F9000729FB00DE11DF91F639FB00DE11DF91F98
:100FA000BD01CF011124089597FB092E07260AD011
:100FB00077FD04D049D006D000201AF470956195D1
:100FC0007F4F0895F6F7909581959F4F0895A1E280
:100FD0001A2EAA1BBB1BFD010DC0AA1FBB1FEE1FB3
:100FE000FF1FA217B307E407F50720F0A21BB30BFE
:100FF000E40BF50B661F771F881F991F1A9469F77A
:1010000060957095809590959B01AC01BD01CF01D5
:10101000089597FB092E05260ED057FD04D0D7DF83
:101020000AD0001C38F450954095309521953F4FDB
:101030004F4F5F4F0895F6F79095809570956195A5
:101040007F4F8F4F9F4F0895AA1BBB1B51E107C0D5
:10105000AA1FBB1FA617B70710F0A61BB70B881F48
:10106000991F5A95A9F780959095BC01CD010895D7
:10107000EE0FFF1F0590F491E02D0994F894FFCF37
:0C10800001000000005106A206BA0600A4
:00000001FF
